:0C0000000C943D000C9400000C940000D7
:10000C000C9400000C9400000C9400000C94000064
:10001C000C9400000C9400000C9400000C94000054
:10002C000C9400000C9400000C9400000C94000044
:10003C000C9400000C9400000C9400000C94000034
:10004C000C9400000C940000000000000000000064
:10005C00000080C001002D4E414E00494E4600006C
:10006C00020060025E000100640260000000F8946F
:10007C00EE27ECBBF1E0FBBFEBBFE5BF8DE0A2E0F0
:10008C00BB27ED938A95E9F780E098E0A0E6ED9325
:10009C000197E9F7ECE6F0E085919591009761F016
:1000AC00A591B59105901590BF01F00105900D92A9
:1000BC000197E1F7FB01F0CFEFE5EDBFE8E0EEBF14
:1000CC00C0E6D2E00C945801AA93E881E06CE7B941
:1000DC008BE18A95F1F7369A349BFECF349AE4B1D2
:1000EC00F5B10C940503E0E8E2BFE5E0E3BFE8B747
:1000FC00E0FFFDCFE0E0E3BFE1E0E8BF0895BA9395
:10010C00AA93EC81FD81309711F40E94350308C04D
:10011C00BA93AA93AC81BD81119711F40E94350357
:10012C00EA81FB8126960895BA93AA931A930A93AF
:10013C0000E010E0AC81BD81119729F40E944603C8
:10014C000E94D0038F01AC81BD81129729F40E94CB
:10015C0046030E94B8038F01AC81BD81139739F41B
:10016C00AA81BB81EE81FF81EA1BFB0B8F01AC8165
:10017C00BD81149729F40E944603EA0FFB1F8F01DF
:10018C00F8011981088128960895BA93AA93E881F9
:10019C00F981309719F4E0E30C94A502A881B98198
:1001AC00119719F4E1E30C94A502A881B981129777
:1001BC0019F4E2E30C94A502A881B981139719F400
:1001CC00E3E30C94A502A881B981149719F4E4E334
:1001DC000C94A502A881B981159719F4E5E30C9448
:1001EC00A502A881B981169719F4E6E30C94A5022F
:1001FC00A881B981179719F4E7E30C94A502A8819B
:10020C00B981189719F4E8E30C94A502A881B98177
:10021C00199711F4E9E393C1E6E291C1BA93AA9359
:10022C002A970E94F9030E944B035AE2A889B989C4
:10023C000E94F503E4F4F801DE011696EE0FFF1FA1
:10024C00EA0FFB1FBF01A889B989EAE0F0E00E9420
:10025C00D503DB01ED93FC930F5F1F4FA889B98980
:10026C00EAE0F0E00E94D003E88BF98BDFCF980135
:10027C0000240216030694F4F9013197DE01169658
:10028C00EE0FFF1FAE0FBF1F0E94F103DF017DDFDA
:10029C005E2FA52F62D121503040EACF0E9400047E
:1002AC006296089560978AE0A6E0B0E0E4E5F0E09D
:1002BC000E9407040E944B0340E050E0EEEFEABBC3
:1002CC00EFEFE4BBEFE0E1BBE0E0EBBBE7BBE8BB8F
:1002DC00E5BBE2BBE3BFE2BFECBFEFBDEEBDEDBDE6
:1002EC00ECBDE7BDE6BDEBBDEABDE9BDE8BDE2BDD9
:1002FC00E5BDE4BDE3BDE9BFE5BFE4BFEAB9E0E8B5
:10030C00E8B9E0ECE7B9E7EAE6B9E0E0E0BFEDB95F
:10031C00E6BFA0E148D1E1E0E2BB849B0BC00E94A8
:10032C005003A7E00E945503A7E00E945E03A7E3D9
:10033C000E946303859B0BC00E945003A8E00E949F
:10034C005503A8E00E945E03A8E30E946303869B0A
:10035C000BC00E945003A9E00E945503A9E00E9423
:10036C005E03A9E30E946303879B07C0E1E0F0E012
:10037C000E946B03AFE20E946303B5DEE2E0E2BBD6
:10038C00849B0BC00E945003A4E00E945503A4E080
:10039C000E945E03A4E30E946303859B0BC00E9432
:1003AC005003A5E00E945503A5E00E945E03A5E35F
:1003BC000E946303869B0BC00E945003A6E00E9420
:1003CC005503A6E00E945E03A6E30E946303879B8D
:1003DC0007C0E2E0F0E00E946B03AAE20E94630314
:1003EC00E4E0E2BB80DE849B0BC00E945003A1E0E2
:1003FC000E945503A1E00E945E03A1E30E946303E7
:10040C00859B0BC00E945003A2E00E945503A2E002
:10041C000E945E03A2E30E946303869B0BC00E94B2
:10042C005003A3E00E945503A3E00E945E03A3E3E4
:10043C000E946303879B07C0E3E0F0E00E946B031C
:10044C00ADE20E946303E8E0E2BB4DDE849B0FC08B
:10045C000E944B0340E050E0E0E0EE87EF87EC8732
:10046C00ED876FD0E0E0E887E9870E947003859BF9
:10047C000BC00E945003A0E00E945503A0E00E9414
:10048C005E03A0E30E946303869B14C03A932A93F5
:10049C00E889F989FA93EA93DA0146DEEC87FD875D
:1004AC00ADE35BD0AC85BD85B9DEE885F9853196C9
:1004BC00E887F987879B07C0E4E0F0E00E946B03B4
:1004CC00ABE20E9463030FDEEA85FB853196EA8777
:1004DC00FB87AA85BB851A9729F4E0E0EA87EB87AE
:1004EC000E94700318CFFFCFAA93E5B3EF70AE2F25
:1004FC00E881E07FEA2BE5BB8DE08A95F1F7AA9ABB
:10050C008DE08A95F1F7AA988DE08A95F1F777C07E
:10051C00AA93A881E9DFE881E295E883A881E4DF6A
:10052C0085E88A95F1F76BC0AA93E881F0E0E05A70
:10053C00FD4FE081A981AE0FEBDF598048802296F8
:10054C000895A2E00E949403ACE0E2DFA1E00E94D7
:10055C009403E0E04E2E5E2E0895AA93A881AA3053
:10056C0011F0571448F0E0E0EA934394A42DDCDF3B
:10057C00A881AA3009F443C05394A89AA881C8DF73
:10058C00A8983DC0BA93AA931A93A981BA81ED9108
:10059C00A983BA831E2FE03019F0A12FDEDFF5CF2F
:1005AC00188123960895AA93E4B3E06FE4BBA29A52
:1005BC00A09AA19AAA98A898A9987880E881E0585E
:1005CC00E0936202E881E054E0936302A4E1B0E0BE
:1005DC000E94A2030E949A030E949A030E949A030B
:1005EC00A0E282DF88EC90E00197F1F7A8E290DFBF
:1005FC00A4E08EDFA5E88CDFA6E08ADFA2DF2196DF
:10060C000895BA93AA93A991B991E991F991309669
:10061C002AF4E095F09531966DE26D93E89480E1C3
:10062C0097E20DD088EE93E00AD084E6992707D0A4
:10063C008AE005D06E2F10D066276C93089566273C
:10064C00E817F90720F06395E81BF90BC9F7662347
:10065C0011F416F008956894605D6D930895EA8125
:10066C00FB81AAE0B0E00E94B803EA83FB83E88137
:10067C00F981AA81BB81EA0FFB1FEA83FB830895F2
:10068C00EA81FB81AE81BF81089500E010E020E09B
:10069C0030E008951A930A933A932A930895B0E0A0
:1006AC000E9485009F011A930A935A934A930895C6
:1006BC00B0E00E948E00AF0108950E94B302E8855D
:1006CC00F9853196E887F9870895EE87FF8701E071
:1006DC0010E00895A0E00E946A00EE83FF83AE81D3
:1006EC00BF81E4E0F0E00E94D003EE83FF83FA9335
:1006FC00EA93DE0112960E940703EEE2EA83E3E43A
:10070C00EB83E0E0EA93A1E00E949A02DE010E94F2
:10071C00C802E885EA93A0E00C949A020E948E022B
:10072C00A3E0B0E00C94A203A0E30E947A0288EC50
:10073C0090E00197F1F70895109639F080ED97E06D
:10074C000197F1F7A8951197C9F70895F195E195DF
:10075C00F0400895FA9FF02DEB9FF00DEA9FE02DED
:10076C00F10D08952AD0F6DF0EF4F0DF0895002481
:10077C00112490E1AA0FBB1F001C111C0E1A1F0A9A
:10078C0018F40E0E1F1E01C0A1609A9599F7FD0179
:10079C00D001089512D0EBDF0EF4D8DF0895E89461
:1007AC00B7FF04C0A095B09511966894F7FDCEDF05
:1007BC00DEDFFD010EF4CADF0895E894F7FF02C0F6
:1007CC00C5DF6894B7FF06C0A095B095119600F8E8
:1007DC00039400FA0895ED91FC911197089500246B
:1007EC000A160B0608955A934A933A932A931A932E
:1007FC000A9308955D814C813B812A81198108817E
:10080C000895AC0FBD1F05900D928A95E1F70895E0
:00000001FF
